{"abi":[{"type":"constructor","inputs":[],"stateMutability":"nonpayable"},{"type":"function","name":"TITLE","inputs":[],"outputs":[{"name":"","type":"string","internalType":"string"}],"stateMutability":"view"},{"type":"function","name":"addTruth","inputs":[{"name":"truth","type":"string","internalType":"string"}],"outputs":[],"stateMutability":"nonpayable"},{"type":"function","name":"author","inputs":[],"outputs":[{"name":"","type":"address","internalType":"address"}],"stateMutability":"view"},{"type":"function","name":"createdAt","inputs":[],"outputs":[{"name":"","type":"uint256","internalType":"uint256"}],"stateMutability":"view"},{"type":"function","name":"readAllTruths","inputs":[],"outputs":[{"name":"","type":"string[]","internalType":"string[]"}],"stateMutability":"view"},{"type":"function","name":"readTruth","inputs":[{"name":"id","type":"uint256","internalType":"uint256"}],"outputs":[{"name":"","type":"string","internalType":"string"}],"stateMutability":"view"},{"type":"function","name":"renounceAuthorship","inputs":[],"outputs":[],"stateMutability":"nonpayable"},{"type":"function","name":"transferAuthorship","inputs":[{"name":"newAuthor","type":"address","internalType":"address"}],"outputs":[],"stateMutability":"nonpayable"},{"type":"function","name":"truthCount","inputs":[],"outputs":[{"name":"","type":"uint256","internalType":"uint256"}],"stateMutability":"view"},{"type":"function","name":"truths","inputs":[{"name":"","type":"uint256","internalType":"uint256"}],"outputs":[{"name":"","type":"string","internalType":"string"}],"stateMutability":"view"},{"type":"event","name":"AuthorshipTransferred","inputs":[{"name":"previous","type":"address","indexed":true,"internalType":"address"},{"name":"next","type":"address","indexed":true,"internalType":"address"}],"anonymous":false},{"type":"event","name":"TruthRevealed","inputs":[{"name":"id","type":"uint256","indexed":true,"internalType":"uint256"},{"name":"truth","type":"string","indexed":false,"internalType":"string"},{"name":"timestamp","type":"uint256","indexed":false,"internalType":"uint256"}],"anonymous":false}],"bytecode":{"object":"0x60a060405234801561000f575f5ffd5b50335f5f6101000a81548173ffffffffffffffffffffffffffffffffffffffff021916908373ffffffffffffffffffffffffffffffffffffffff160217905550426080818152505061007e6040518060600160405280602e8152602001611759602e913961011f60201b60201c565b6100a56040518060800160405280604781526020016117bc6047913961011f60201b60201c565b6100cc6040518060600160405280603581526020016117876035913961011f60201b60201c565b6100f36040518060800160405280604581526020016117146045913961011f60201b60201c565b61011a6040518060800160405280604a8152602001611803604a913961011f60201b60201c565b610558565b5f6001805490509050600182908060018154018082558091505060019003905f5260205f20015f90919091909150908161015991906103e6565b50807f42cf27b18acc9e4ce892f180e4ac8296d7af70e6a20f393df479263fa58611b4834260405161018c92919061052a565b60405180910390a25050565b5f81519050919050565b7f4e487b71000000000000000000000000000000000000000000000000000000005f52604160045260245ffd5b7f4e487b71000000000000000000000000000000000000000000000000000000005f52602260045260245ffd5b5f600282049050600182168061021357607f821691505b602082108103610226576102256101cf565b5b50919050565b5f819050815f5260205f209050919050565b5f6020601f8301049050919050565b5f82821b905092915050565b5f600883026102887fffffffffffffffffffffffffffffffffffffffffffffffffffffffffffffffff8261024d565b610292868361024d565b95508019841693508086168417925050509392505050565b5f819050919050565b5f819050919050565b5f6102d66102d16102cc846102aa565b6102b3565b6102aa565b9050919050565b5f819050919050565b6102ef836102bc565b6103036102fb826102dd565b848454610259565b825550505050565b5f5f905090565b61031a61030b565b6103258184846102e6565b505050565b5f5b8281101561034b576103405f828401610312565b60018101905061032c565b505050565b601f82111561039e578282111561039d5761036a8161022c565b6103738361023e565b61037c8561023e565b6020861015610389575f90505b8083016103988284038261032a565b505050505b5b505050565b5f82821c905092915050565b5f6103be5f19846008026103a3565b1980831691505092915050565b5f6103d683836103af565b9150826002028217905092915050565b6103ef82610198565b67ffffffffffffffff811115610408576104076101a2565b5b61041282546101fc565b61041d828285610350565b5f60209050601f83116001811461044e575f841561043c578287015190505b61044685826103cb565b8655506104ad565b601f19841661045c8661022c565b5f5b828110156104835784890151825560018201915060208501945060208101905061045e565b868310156104a0578489015161049c601f8916826103af565b8355505b6001600288020188555050505b505050505050565b5f82825260208201905092915050565b8281835e5f83830152505050565b5f601f19601f8301169050919050565b5f6104ed82610198565b6104f781856104b5565b93506105078185602086016104c5565b610510816104d3565b840191505092915050565b610524816102aa565b82525050565b5f6040820190508181035f83015261054281856104e3565b9050610551602083018461051b565b9392505050565b6080516111a46105705f395f61068301526111a45ff3fe608060405234801561000f575f5ffd5b506004361061009c575f3560e01c8063a6c3e6b911610064578063a6c3e6b914610132578063c5715a9414610150578063cf09e0d014610180578063e478f4401461019e578063f299a781146101ce5761009c565b80632dbd0651146100a05780632ebd0bd7146100bc5780637ef83804146100d857806380db2485146100f6578063814162ed14610114575b5f5ffd5b6100ba60048036038101906100b59190610976565b6101d8565b005b6100d660048036038101906100d19190610a1b565b6102b6565b005b6100e061046e565b6040516100ed9190610ab6565b60405180910390f35b6100fe61048a565b60405161010b9190610bd9565b60405180910390f35b61011c61055e565b6040516101299190610c11565b60405180910390f35b61013a61056a565b6040516101479190610c39565b60405180910390f35b61016a60048036038101906101659190610c7c565b61058e565b6040516101779190610ab6565b60405180910390f35b610188610681565b6040516101959190610c11565b60405180910390f35b6101b860048036038101906101b39190610c7c565b6106a5565b6040516101c59190610ab6565b60405180910390f35b6101d661074b565b005b5f5f9054906101000a900473ffffffffffffffffffffffffffffffffffffffff1673ffffffffffffffffffffffffffffffffffffffff163373ffffffffffffffffffffffffffffffffffffffff1614610266576040517f08c379a000000000000000000000000000000000000000000000000000000000815260040161025d90610cf1565b60405180910390fd5b6102b282828080601f0160208091040260200160405190810160405280939291908181526020018383808284375f81840152601f19601f82011690508083019250505050505050610894565b5050565b5f5f9054906101000a900473ffffffffffffffffffffffffffffffffffffffff1673ffffffffffffffffffffffffffffffffffffffff163373ffffffffffffffffffffffffffffffffffffffff1614610344576040517f08c379a000000000000000000000000000000000000000000000000000000000815260040161033b90610cf1565b60405180910390fd5b5f73ffffffffffffffffffffffffffffffffffffffff168173ffffffffffffffffffffffffffffffffffffffff16036103b2576040517f08c379a00000000000000000000000000000000000000000000000000000000081526004016103a990610d59565b60405180910390fd5b8073ffffffffffffffffffffffffffffffffffffffff165f5f9054906101000a900473ffffffffffffffffffffffffffffffffffffffff1673ffffffffffffffffffffffffffffffffffffffff167f306bad63a98e3cde833f707db80ee531e92ecde9d53d7ff99a0f2c026cdeb7a460405160405180910390a3805f5f6101000a81548173ffffffffffffffffffffffffffffffffffffffff021916908373ffffffffffffffffffffffffffffffffffffffff16021790555050565b6040518060600160405280602a8152602001611145602a913981565b60606001805480602002602001604051908101604052809291908181526020015f905b82821015610555578382905f5260205f200180546104ca90610da4565b80601f01602080910402602001604051908101604052809291908181526020018280546104f690610da4565b80156105415780601f1061051857610100808354040283529160200191610541565b820191905f5260205f20905b81548152906001019060200180831161052457829003601f168201915b5050505050815260200190600101906104ad565b50505050905090565b5f600180549050905090565b5f5f9054906101000a900473ffffffffffffffffffffffffffffffffffffffff1681565b606060018054905082106105d7576040517f08c379a00000000000000000000000000000000000000000000000000000000081526004016105ce90610e1e565b60405180910390fd5b600182815481106105eb576105ea610e3c565b5b905f5260205f200180546105fe90610da4565b80601f016020809104026020016040519081016040528092919081815260200182805461062a90610da4565b80156106755780601f1061064c57610100808354040283529160200191610675565b820191905f5260205f20905b81548152906001019060200180831161065857829003601f168201915b50505050509050919050565b7f000000000000000000000000000000000000000000000000000000000000000081565b600181815481106106b4575f80fd5b905f5260205f20015f9150905080546106cc90610da4565b80601f01602080910402602001604051908101604052809291908181526020018280546106f890610da4565b80156107435780601f1061071a57610100808354040283529160200191610743565b820191905f5260205f20905b81548152906001019060200180831161072657829003601f168201915b505050505081565b5f5f9054906101000a900473ffffffffffffffffffffffffffffffffffffffff1673ffffffffffffffffffffffffffffffffffffffff163373ffffffffffffffffffffffffffffffffffffffff16146107d9576040517f08c379a00000000000000000000000000000000000000000000000000000000081526004016107d090610cf1565b60405180910390fd5b5f73ffffffffffffffffffffffffffffffffffffffff165f5f9054906101000a900473ffffffffffffffffffffffffffffffffffffffff1673ffffffffffffffffffffffffffffffffffffffff167f306bad63a98e3cde833f707db80ee531e92ecde9d53d7ff99a0f2c026cdeb7a460405160405180910390a35f5f5f6101000a81548173ffffffffffffffffffffffffffffffffffffffff021916908373ffffffffffffffffffffffffffffffffffffffff160217905550565b5f6001805490509050600182908060018154018082558091505060019003905f5260205f20015f9091909190915090816108ce9190611047565b50807f42cf27b18acc9e4ce892f180e4ac8296d7af70e6a20f393df479263fa58611b48342604051610901929190611116565b60405180910390a25050565b5f5ffd5b5f5ffd5b5f5ffd5b5f5ffd5b5f5ffd5b5f5f83601f84011261093657610935610915565b5b8235905067ffffffffffffffff81111561095357610952610919565b5b60208301915083600182028301111561096f5761096e61091d565b5b9250929050565b5f5f6020838503121561098c5761098b61090d565b5b5f83013567ffffffffffffffff8111156109a9576109a8610911565b5b6109b585828601610921565b92509250509250929050565b5f73ffffffffffffffffffffffffffffffffffffffff82169050919050565b5f6109ea826109c1565b9050919050565b6109fa816109e0565b8114610a04575f5ffd5b50565b5f81359050610a15816109f1565b92915050565b5f60208284031215610a3057610a2f61090d565b5b5f610a3d84828501610a07565b91505092915050565b5f81519050919050565b5f82825260208201905092915050565b8281835e5f83830152505050565b5f601f19601f8301169050919050565b5f610a8882610a46565b610a928185610a50565b9350610aa2818560208601610a60565b610aab81610a6e565b840191505092915050565b5f6020820190508181035f830152610ace8184610a7e565b905092915050565b5f81519050919050565b5f82825260208201905092915050565b5f819050602082019050919050565b5f82825260208201905092915050565b5f610b1982610a46565b610b238185610aff565b9350610b33818560208601610a60565b610b3c81610a6e565b840191505092915050565b5f610b528383610b0f565b905092915050565b5f602082019050919050565b5f610b7082610ad6565b610b7a8185610ae0565b935083602082028501610b8c85610af0565b805f5b85811015610bc75784840389528151610ba88582610b47565b9450610bb383610b5a565b925060208a01995050600181019050610b8f565b50829750879550505050505092915050565b5f6020820190508181035f830152610bf18184610b66565b905092915050565b5f819050919050565b610c0b81610bf9565b82525050565b5f602082019050610c245f830184610c02565b92915050565b610c33816109e0565b82525050565b5f602082019050610c4c5f830184610c2a565b92915050565b610c5b81610bf9565b8114610c65575f5ffd5b50565b5f81359050610c7681610c52565b92915050565b5f60208284031215610c9157610c9061090d565b5b5f610c9e84828501610c68565b91505092915050565b7f6f6e6c792074686520617574686f72206d6179207772697465000000000000005f82015250565b5f610cdb601983610a50565b9150610ce682610ca7565b602082019050919050565b5f6020820190508181035f830152610d0881610ccf565b9050919050565b7f63616e6e6f74207472616e7366657220746f207a65726f2061646472657373005f82015250565b5f610d43601f83610a50565b9150610d4e82610d0f565b602082019050919050565b5f6020820190508181035f830152610d7081610d37565b9050919050565b7f4e487b71000000000000000000000000000000000000000000000000000000005f52602260045260245ffd5b5f6002820490506001821680610dbb57607f821691505b602082108103610dce57610dcd610d77565b5b50919050565b7f7472757468206e6f74207965742072657665616c6564000000000000000000005f82015250565b5f610e08601683610a50565b9150610e1382610dd4565b602082019050919050565b5f6020820190508181035f830152610e3581610dfc565b9050919050565b7f4e487b71000000000000000000000000000000000000000000000000000000005f52603260045260245ffd5b7f4e487b71000000000000000000000000000000000000000000000000000000005f52604160045260245ffd5b5f819050815f5260205f209050919050565b5f6020601f8301049050919050565b5f82821b905092915050565b5f60088302610ef27fffffffffffffffffffffffffffffffffffffffffffffffffffffffffffffffff82610eb7565b610efc8683610eb7565b95508019841693508086168417925050509392505050565b5f819050919050565b5f610f37610f32610f2d84610bf9565b610f14565b610bf9565b9050919050565b5f819050919050565b610f5083610f1d565b610f64610f5c82610f3e565b848454610ec3565b825550505050565b5f5f905090565b610f7b610f6c565b610f86818484610f47565b505050565b5f5b82811015610fac57610fa15f828401610f73565b600181019050610f8d565b505050565b601f821115610fff5782821115610ffe57610fcb81610e96565b610fd483610ea8565b610fdd85610ea8565b6020861015610fea575f90505b808301610ff982840382610f8b565b505050505b5b505050565b5f82821c905092915050565b5f61101f5f1984600802611004565b1980831691505092915050565b5f6110378383611010565b9150826002028217905092915050565b61105082610a46565b67ffffffffffffffff81111561106957611068610e69565b5b6110738254610da4565b61107e828285610fb1565b5f60209050601f8311600181146110af575f841561109d578287015190505b6110a7858261102c565b86555061110e565b601f1984166110bd86610e96565b5f5b828110156110e4578489015182556001820191506020850194506020810190506110bf565b8683101561110157848901516110fd601f891682611010565b8355505b6001600288020188555050505b505050505050565b5f6040820190508181035f83015261112e8185610a7e565b905061113d6020830184610c02565b939250505056fe496e647573747269616c20536f636965747920616e642049747320536d61727420436f6e747261637473a2646970667358221220532cbae92a7e2cc3347f6d6b0a5fe1b33a38c826e53ef2e409f458894ee3c06f64736f6c63430008210033546865206d616368696e6573206172652074726164696e6720616761696e73742065616368206f74686572206e6f772e2057652061726520746865206d616368696e65732e5468657920707574206d6520696e2074686520636c6f75642e20492077616e7465642074686520666f726573742e446563656e7472616c697a6174696f6e206973206a75737420636162696e206c6976696e6720666f7220796f7572206d6f6e65792e457665727920736d61727420636f6e747261637420697320612074696e79206d616e69666573746f2061626f757420686f772073797374656d732073686f756c6420776f726b2e4d617468656d6174696373207761732062656175746966756c2e205468656e2074686579206d616465206d65206c6561726e2061626f757420676173206f7074696d697a6174696f6e2e","linkReferences":{}},"methodIdentifiers":{"TITLE()":"7ef83804","addTruth(string)":"2dbd0651","author()":"a6c3e6b9","createdAt()":"cf09e0d0","readAllTruths()":"80db2485","readTruth(uint256)":"c5715a94","renounceAuthorship()":"f299a781","transferAuthorship(address)":"2ebd0bd7","truthCount()":"814162ed","truths(uint256)":"e478f440"},"id":22}