{"abi":[{"type":"constructor","inputs":[],"stateMutability":"nonpayable"},{"type":"function","name":"TITLE","inputs":[],"outputs":[{"name":"","type":"string","internalType":"string"}],"stateMutability":"view"},{"type":"function","name":"addTruth","inputs":[{"name":"truth","type":"string","internalType":"string"}],"outputs":[],"stateMutability":"nonpayable"},{"type":"function","name":"author","inputs":[],"outputs":[{"name":"","type":"address","internalType":"address"}],"stateMutability":"view"},{"type":"function","name":"createdAt","inputs":[],"outputs":[{"name":"","type":"uint256","internalType":"uint256"}],"stateMutability":"view"},{"type":"function","name":"readAllTruths","inputs":[],"outputs":[{"name":"","type":"string[]","internalType":"string[]"}],"stateMutability":"view"},{"type":"function","name":"readTruth","inputs":[{"name":"id","type":"uint256","internalType":"uint256"}],"outputs":[{"name":"","type":"string","internalType":"string"}],"stateMutability":"view"},{"type":"function","name":"renounceAuthorship","inputs":[],"outputs":[],"stateMutability":"nonpayable"},{"type":"function","name":"transferAuthorship","inputs":[{"name":"newAuthor","type":"address","internalType":"address"}],"outputs":[],"stateMutability":"nonpayable"},{"type":"function","name":"truthCount","inputs":[],"outputs":[{"name":"","type":"uint256","internalType":"uint256"}],"stateMutability":"view"},{"type":"function","name":"truths","inputs":[{"name":"","type":"uint256","internalType":"uint256"}],"outputs":[{"name":"","type":"string","internalType":"string"}],"stateMutability":"view"},{"type":"event","name":"AuthorshipTransferred","inputs":[{"name":"previous","type":"address","indexed":true,"internalType":"address"},{"name":"next","type":"address","indexed":true,"internalType":"address"}],"anonymous":false},{"type":"event","name":"TruthRevealed","inputs":[{"name":"id","type":"uint256","indexed":true,"internalType":"uint256"},{"name":"truth","type":"string","indexed":false,"internalType":"string"},{"name":"timestamp","type":"uint256","indexed":false,"internalType":"uint256"}],"anonymous":false}],"bytecode":{"object":"0x60a06040523480156200001157600080fd5b50336000806101000a81548173ffffffffffffffffffffffffffffffffffffffff021916908373ffffffffffffffffffffffffffffffffffffffff1602179055504260808181525050620000846040518060600160405280602e815260200162001861602e91396200013260201b60201c565b620000ae604051806080016040528060478152602001620018c4604791396200013260201b60201c565b620000d86040518060600160405280603581526020016200188f603591396200013260201b60201c565b620001026040518060800160405280604581526020016200181c604591396200013260201b60201c565b6200012c6040518060800160405280604a81526020016200190b604a91396200013260201b60201c565b620005e8565b600060018054905090506001829080600181540180825580915050600190039060005260206000200160009091909190915090816200017291906200042d565b50807f42cf27b18acc9e4ce892f180e4ac8296d7af70e6a20f393df479263fa58611b48342604051620001a7929190620005b4565b60405180910390a25050565b600081519050919050565b7f4e487b7100000000000000000000000000000000000000000000000000000000600052604160045260246000fd5b7f4e487b7100000000000000000000000000000000000000000000000000000000600052602260045260246000fd5b600060028204905060018216806200023557607f821691505b6020821081036200024b576200024a620001ed565b5b50919050565b60008190508160005260206000209050919050565b60006020601f8301049050919050565b600082821b905092915050565b600060088302620002b57fffffffffffffffffffffffffffffffffffffffffffffffffffffffffffffffff8262000276565b620002c1868362000276565b95508019841693508086168417925050509392505050565b6000819050919050565b6000819050919050565b60006200030e620003086200030284620002d9565b620002e3565b620002d9565b9050919050565b6000819050919050565b6200032a83620002ed565b62000342620003398262000315565b84845462000283565b825550505050565b600090565b620003596200034a565b620003668184846200031f565b505050565b5b818110156200038e57620003826000826200034f565b6001810190506200036c565b5050565b601f821115620003dd57620003a78162000251565b620003b28462000266565b81016020851015620003c2578190505b620003da620003d18562000266565b8301826200036b565b50505b505050565b600082821c905092915050565b60006200040260001984600802620003e2565b1980831691505092915050565b60006200041d8383620003ef565b9150826002028217905092915050565b6200043882620001b3565b67ffffffffffffffff811115620004545762000453620001be565b5b6200046082546200021c565b6200046d82828562000392565b600060209050601f831160018114620004a5576000841562000490578287015190505b6200049c85826200040f565b8655506200050c565b601f198416620004b58662000251565b60005b82811015620004df57848901518255600182019150602085019450602081019050620004b8565b86831015620004ff5784890151620004fb601f891682620003ef565b8355505b6001600288020188555050505b505050505050565b600082825260208201905092915050565b60005b838110156200054557808201518184015260208101905062000528565b60008484015250505050565b6000601f19601f8301169050919050565b60006200056f82620001b3565b6200057b818562000514565b93506200058d81856020860162000525565b620005988162000551565b840191505092915050565b620005ae81620002d9565b82525050565b60006040820190508181036000830152620005d0818562000562565b9050620005e16020830184620005a3565b9392505050565b60805161121862000604600039600061069301526112186000f3fe608060405234801561001057600080fd5b506004361061009e5760003560e01c8063a6c3e6b911610066578063a6c3e6b914610135578063c5715a9414610153578063cf09e0d014610183578063e478f440146101a1578063f299a781146101d15761009e565b80632dbd0651146100a35780632ebd0bd7146100bf5780637ef83804146100db57806380db2485146100f9578063814162ed14610117575b600080fd5b6100bd60048036038101906100b89190610999565b6101db565b005b6100d960048036038101906100d49190610a44565b6102ba565b005b6100e3610474565b6040516100f09190610b01565b60405180910390f35b610101610490565b60405161010e9190610c2f565b60405180910390f35b61011f610569565b60405161012c9190610c6a565b60405180910390f35b61013d610576565b60405161014a9190610c94565b60405180910390f35b61016d60048036038101906101689190610cdb565b61059a565b60405161017a9190610b01565b60405180910390f35b61018b610691565b6040516101989190610c6a565b60405180910390f35b6101bb60048036038101906101b69190610cdb565b6106b5565b6040516101c89190610b01565b60405180910390f35b6101d9610761565b005b60008054906101000a900473ffffffffffffffffffffffffffffffffffffffff1673ffffffffffffffffffffffffffffffffffffffff163373ffffffffffffffffffffffffffffffffffffffff1614610269576040517f08c379a000000000000000000000000000000000000000000000000000000000815260040161026090610d54565b60405180910390fd5b6102b682828080601f016020809104026020016040519081016040528093929190818152602001838380828437600081840152601f19601f820116905080830192505050505050506108ad565b5050565b60008054906101000a900473ffffffffffffffffffffffffffffffffffffffff1673ffffffffffffffffffffffffffffffffffffffff163373ffffffffffffffffffffffffffffffffffffffff1614610348576040517f08c379a000000000000000000000000000000000000000000000000000000000815260040161033f90610d54565b60405180910390fd5b600073ffffffffffffffffffffffffffffffffffffffff168173ffffffffffffffffffffffffffffffffffffffff16036103b7576040517f08c379a00000000000000000000000000000000000000000000000000000000081526004016103ae90610dc0565b60405180910390fd5b8073ffffffffffffffffffffffffffffffffffffffff1660008054906101000a900473ffffffffffffffffffffffffffffffffffffffff1673ffffffffffffffffffffffffffffffffffffffff167f306bad63a98e3cde833f707db80ee531e92ecde9d53d7ff99a0f2c026cdeb7a460405160405180910390a3806000806101000a81548173ffffffffffffffffffffffffffffffffffffffff021916908373ffffffffffffffffffffffffffffffffffffffff16021790555050565b6040518060600160405280602a81526020016111b9602a913981565b60606001805480602002602001604051908101604052809291908181526020016000905b828210156105605783829060005260206000200180546104d390610e0f565b80601f01602080910402602001604051908101604052809291908181526020018280546104ff90610e0f565b801561054c5780601f106105215761010080835404028352916020019161054c565b820191906000526020600020905b81548152906001019060200180831161052f57829003601f168201915b5050505050815260200190600101906104b4565b50505050905090565b6000600180549050905090565b60008054906101000a900473ffffffffffffffffffffffffffffffffffffffff1681565b606060018054905082106105e3576040517f08c379a00000000000000000000000000000000000000000000000000000000081526004016105da90610e8c565b60405180910390fd5b600182815481106105f7576105f6610eac565b5b90600052602060002001805461060c90610e0f565b80601f016020809104026020016040519081016040528092919081815260200182805461063890610e0f565b80156106855780601f1061065a57610100808354040283529160200191610685565b820191906000526020600020905b81548152906001019060200180831161066857829003601f168201915b50505050509050919050565b7f000000000000000000000000000000000000000000000000000000000000000081565b600181815481106106c557600080fd5b9060005260206000200160009150905080546106e090610e0f565b80601f016020809104026020016040519081016040528092919081815260200182805461070c90610e0f565b80156107595780601f1061072e57610100808354040283529160200191610759565b820191906000526020600020905b81548152906001019060200180831161073c57829003601f168201915b505050505081565b60008054906101000a900473ffffffffffffffffffffffffffffffffffffffff1673ffffffffffffffffffffffffffffffffffffffff163373ffffffffffffffffffffffffffffffffffffffff16146107ef576040517f08c379a00000000000000000000000000000000000000000000000000000000081526004016107e690610d54565b60405180910390fd5b600073ffffffffffffffffffffffffffffffffffffffff1660008054906101000a900473ffffffffffffffffffffffffffffffffffffffff1673ffffffffffffffffffffffffffffffffffffffff167f306bad63a98e3cde833f707db80ee531e92ecde9d53d7ff99a0f2c026cdeb7a460405160405180910390a360008060006101000a81548173ffffffffffffffffffffffffffffffffffffffff021916908373ffffffffffffffffffffffffffffffffffffffff160217905550565b600060018054905090506001829080600181540180825580915050600190039060005260206000200160009091909190915090816108eb91906110b6565b50807f42cf27b18acc9e4ce892f180e4ac8296d7af70e6a20f393df479263fa58611b4834260405161091e929190611188565b60405180910390a25050565b600080fd5b600080fd5b600080fd5b600080fd5b600080fd5b60008083601f84011261095957610958610934565b5b8235905067ffffffffffffffff81111561097657610975610939565b5b6020830191508360018202830111156109925761099161093e565b5b9250929050565b600080602083850312156109b0576109af61092a565b5b600083013567ffffffffffffffff8111156109ce576109cd61092f565b5b6109da85828601610943565b92509250509250929050565b600073ffffffffffffffffffffffffffffffffffffffff82169050919050565b6000610a11826109e6565b9050919050565b610a2181610a06565b8114610a2c57600080fd5b50565b600081359050610a3e81610a18565b92915050565b600060208284031215610a5a57610a5961092a565b5b6000610a6884828501610a2f565b91505092915050565b600081519050919050565b600082825260208201905092915050565b60005b83811015610aab578082015181840152602081019050610a90565b60008484015250505050565b6000601f19601f8301169050919050565b6000610ad382610a71565b610add8185610a7c565b9350610aed818560208601610a8d565b610af681610ab7565b840191505092915050565b60006020820190508181036000830152610b1b8184610ac8565b905092915050565b600081519050919050565b600082825260208201905092915050565b6000819050602082019050919050565b600082825260208201905092915050565b6000610b6b82610a71565b610b758185610b4f565b9350610b85818560208601610a8d565b610b8e81610ab7565b840191505092915050565b6000610ba58383610b60565b905092915050565b6000602082019050919050565b6000610bc582610b23565b610bcf8185610b2e565b935083602082028501610be185610b3f565b8060005b85811015610c1d5784840389528151610bfe8582610b99565b9450610c0983610bad565b925060208a01995050600181019050610be5565b50829750879550505050505092915050565b60006020820190508181036000830152610c498184610bba565b905092915050565b6000819050919050565b610c6481610c51565b82525050565b6000602082019050610c7f6000830184610c5b565b92915050565b610c8e81610a06565b82525050565b6000602082019050610ca96000830184610c85565b92915050565b610cb881610c51565b8114610cc357600080fd5b50565b600081359050610cd581610caf565b92915050565b600060208284031215610cf157610cf061092a565b5b6000610cff84828501610cc6565b91505092915050565b7f6f6e6c792074686520617574686f72206d617920777269746500000000000000600082015250565b6000610d3e601983610a7c565b9150610d4982610d08565b602082019050919050565b60006020820190508181036000830152610d6d81610d31565b9050919050565b7f63616e6e6f74207472616e7366657220746f207a65726f206164647265737300600082015250565b6000610daa601f83610a7c565b9150610db582610d74565b602082019050919050565b60006020820190508181036000830152610dd981610d9d565b9050919050565b7f4e487b7100000000000000000000000000000000000000000000000000000000600052602260045260246000fd5b60006002820490506001821680610e2757607f821691505b602082108103610e3a57610e39610de0565b5b50919050565b7f7472757468206e6f74207965742072657665616c656400000000000000000000600082015250565b6000610e76601683610a7c565b9150610e8182610e40565b602082019050919050565b60006020820190508181036000830152610ea581610e69565b9050919050565b7f4e487b7100000000000000000000000000000000000000000000000000000000600052603260045260246000fd5b7f4e487b7100000000000000000000000000000000000000000000000000000000600052604160045260246000fd5b60008190508160005260206000209050919050565b60006020601f8301049050919050565b600082821b905092915050565b600060088302610f6c7fffffffffffffffffffffffffffffffffffffffffffffffffffffffffffffffff82610f2f565b610f768683610f2f565b95508019841693508086168417925050509392505050565b6000819050919050565b6000610fb3610fae610fa984610c51565b610f8e565b610c51565b9050919050565b6000819050919050565b610fcd83610f98565b610fe1610fd982610fba565b848454610f3c565b825550505050565b600090565b610ff6610fe9565b611001818484610fc4565b505050565b5b818110156110255761101a600082610fee565b600181019050611007565b5050565b601f82111561106a5761103b81610f0a565b61104484610f1f565b81016020851015611053578190505b61106761105f85610f1f565b830182611006565b50505b505050565b600082821c905092915050565b600061108d6000198460080261106f565b1980831691505092915050565b60006110a6838361107c565b9150826002028217905092915050565b6110bf82610a71565b67ffffffffffffffff8111156110d8576110d7610edb565b5b6110e28254610e0f565b6110ed828285611029565b600060209050601f831160018114611120576000841561110e578287015190505b611118858261109a565b865550611180565b601f19841661112e86610f0a565b60005b8281101561115657848901518255600182019150602085019450602081019050611131565b86831015611173578489015161116f601f89168261107c565b8355505b6001600288020188555050505b505050505050565b600060408201905081810360008301526111a28185610ac8565b90506111b16020830184610c5b565b939250505056fe496e647573747269616c20536f636965747920616e642049747320536d61727420436f6e747261637473a264697066735822122037ae0771fb3ac5ba644815a873a961a6d810fc237a6a4ab93db6659308c9011764736f6c63430008130033546865206d616368696e6573206172652074726164696e6720616761696e73742065616368206f74686572206e6f772e2057652061726520746865206d616368696e65732e5468657920707574206d6520696e2074686520636c6f75642e20492077616e7465642074686520666f726573742e446563656e7472616c697a6174696f6e206973206a75737420636162696e206c6976696e6720666f7220796f7572206d6f6e65792e457665727920736d61727420636f6e747261637420697320612074696e79206d616e69666573746f2061626f757420686f772073797374656d732073686f756c6420776f726b2e4d617468656d6174696373207761732062656175746966756c2e205468656e2074686579206d616465206d65206c6561726e2061626f757420676173206f7074696d697a6174696f6e2e","linkReferences":{}},"methodIdentifiers":{"TITLE()":"7ef83804","addTruth(string)":"2dbd0651","author()":"a6c3e6b9","createdAt()":"cf09e0d0","readAllTruths()":"80db2485","readTruth(uint256)":"c5715a94","renounceAuthorship()":"f299a781","transferAuthorship(address)":"2ebd0bd7","truthCount()":"814162ed","truths(uint256)":"e478f440"},"id":16}